{
  "_format": "hh-sol-artifact-1",
  "contractName": "AssetToken",
  "sourceName": "contracts/AssetToken.sol",
  "abi": [
    {
      "inputs": [],
      "stateMutability": "nonpayable",
      "type": "constructor"
    },
    {
      "inputs": [
        {
          "internalType": "address",
          "name": "sender",
          "type": "address"
        },
        {
          "internalType": "uint256",
          "name": "tokenId",
          "type": "uint256"
        },
        {
          "internalType": "address",
          "name": "owner",
          "type": "address"
        }
      ],
      "name": "ERC721IncorrectOwner",
      "type": "error"
    },
    {
      "inputs": [
        {
          "internalType": "address",
          "name": "operator",
          "type": "address"
        },
        {
          "internalType": "uint256",
          "name": "tokenId",
          "type": "uint256"
        }
      ],
      "name": "ERC721InsufficientApproval",
      "type": "error"
    },
    {
      "inputs": [
        {
          "internalType": "address",
          "name": "approver",
          "type": "address"
        }
      ],
      "name": "ERC721InvalidApprover",
      "type": "error"
    },
    {
      "inputs": [
        {
          "internalType": "address",
          "name": "operator",
          "type": "address"
        }
      ],
      "name": "ERC721InvalidOperator",
      "type": "error"
    },
    {
      "inputs": [
        {
          "internalType": "address",
          "name": "owner",
          "type": "address"
        }
      ],
      "name": "ERC721InvalidOwner",
      "type": "error"
    },
    {
      "inputs": [
        {
          "internalType": "address",
          "name": "receiver",
          "type": "address"
        }
      ],
      "name": "ERC721InvalidReceiver",
      "type": "error"
    },
    {
      "inputs": [
        {
          "internalType": "address",
          "name": "sender",
          "type": "address"
        }
      ],
      "name": "ERC721InvalidSender",
      "type": "error"
    },
    {
      "inputs": [
        {
          "internalType": "uint256",
          "name": "tokenId",
          "type": "uint256"
        }
      ],
      "name": "ERC721NonexistentToken",
      "type": "error"
    },
    {
      "inputs": [
        {
          "internalType": "address",
          "name": "owner",
          "type": "address"
        }
      ],
      "name": "OwnableInvalidOwner",
      "type": "error"
    },
    {
      "inputs": [
        {
          "internalType": "address",
          "name": "account",
          "type": "address"
        }
      ],
      "name": "OwnableUnauthorizedAccount",
      "type": "error"
    },
    {
      "anonymous": false,
      "inputs": [
        {
          "indexed": true,
          "internalType": "address",
          "name": "owner",
          "type": "address"
        },
        {
          "indexed": true,
          "internalType": "address",
          "name": "approved",
          "type": "address"
        },
        {
          "indexed": true,
          "internalType": "uint256",
          "name": "tokenId",
          "type": "uint256"
        }
      ],
      "name": "Approval",
      "type": "event"
    },
    {
      "anonymous": false,
      "inputs": [
        {
          "indexed": true,
          "internalType": "address",
          "name": "owner",
          "type": "address"
        },
        {
          "indexed": true,
          "internalType": "address",
          "name": "operator",
          "type": "address"
        },
        {
          "indexed": false,
          "internalType": "bool",
          "name": "approved",
          "type": "bool"
        }
      ],
      "name": "ApprovalForAll",
      "type": "event"
    },
    {
      "anonymous": false,
      "inputs": [
        {
          "indexed": true,
          "internalType": "uint256",
          "name": "tokenId",
          "type": "uint256"
        },
        {
          "indexed": true,
          "internalType": "uint256",
          "name": "loanId",
          "type": "uint256"
        }
      ],
      "name": "AssetLocked",
      "type": "event"
    },
    {
      "anonymous": false,
      "inputs": [
        {
          "indexed": true,
          "internalType": "uint256",
          "name": "tokenId",
          "type": "uint256"
        },
        {
          "indexed": true,
          "internalType": "address",
          "name": "borrower",
          "type": "address"
        },
        {
          "indexed": false,
          "internalType": "string",
          "name": "assetType",
          "type": "string"
        },
        {
          "indexed": false,
          "internalType": "uint256",
          "name": "aiValuation",
          "type": "uint256"
        }
      ],
      "name": "AssetMinted",
      "type": "event"
    },
    {
      "anonymous": false,
      "inputs": [
        {
          "indexed": true,
          "internalType": "uint256",
          "name": "tokenId",
          "type": "uint256"
        }
      ],
      "name": "AssetUnlocked",
      "type": "event"
    },
    {
      "anonymous": false,
      "inputs": [
        {
          "indexed": false,
          "internalType": "uint256",
          "name": "_fromTokenId",
          "type": "uint256"
        },
        {
          "indexed": false,
          "internalType": "uint256",
          "name": "_toTokenId",
          "type": "uint256"
        }
      ],
      "name": "BatchMetadataUpdate",
      "type": "event"
    },
    {
      "anonymous": false,
      "inputs": [
        {
          "indexed": true,
          "internalType": "address",
          "name": "manager",
          "type": "address"
        },
        {
          "indexed": false,
          "internalType": "bool",
          "name": "status",
          "type": "bool"
        }
      ],
      "name": "ManagerAuthorized",
      "type": "event"
    },
    {
      "anonymous": false,
      "inputs": [
        {
          "indexed": false,
          "internalType": "uint256",
          "name": "_tokenId",
          "type": "uint256"
        }
      ],
      "name": "MetadataUpdate",
      "type": "event"
    },
    {
      "anonymous": false,
      "inputs": [
        {
          "indexed": true,
          "internalType": "address",
          "name": "previousOwner",
          "type": "address"
        },
        {
          "indexed": true,
          "internalType": "address",
          "name": "newOwner",
          "type": "address"
        }
      ],
      "name": "OwnershipTransferred",
      "type": "event"
    },
    {
      "anonymous": false,
      "inputs": [
        {
          "indexed": true,
          "internalType": "address",
          "name": "from",
          "type": "address"
        },
        {
          "indexed": true,
          "internalType": "address",
          "name": "to",
          "type": "address"
        },
        {
          "indexed": true,
          "internalType": "uint256",
          "name": "tokenId",
          "type": "uint256"
        }
      ],
      "name": "Transfer",
      "type": "event"
    },
    {
      "inputs": [
        {
          "internalType": "address",
          "name": "to",
          "type": "address"
        },
        {
          "internalType": "uint256",
          "name": "tokenId",
          "type": "uint256"
        }
      ],
      "name": "approve",
      "outputs": [],
      "stateMutability": "nonpayable",
      "type": "function"
    },
    {
      "inputs": [
        {
          "internalType": "uint256",
          "name": "",
          "type": "uint256"
        }
      ],
      "name": "assets",
      "outputs": [
        {
          "internalType": "string",
          "name": "assetType",
          "type": "string"
        },
        {
          "internalType": "uint256",
          "name": "aiValuation",
          "type": "uint256"
        },
        {
          "internalType": "uint256",
          "name": "maxLTV",
          "type": "uint256"
        },
        {
          "internalType": "uint256",
          "name": "createdAt",
          "type": "uint256"
        },
        {
          "internalType": "address",
          "name": "borrower",
          "type": "address"
        },
        {
          "internalType": "bool",
          "name": "isLocked",
          "type": "bool"
        },
        {
          "internalType": "uint256",
          "name": "loanId",
          "type": "uint256"
        }
      ],
      "stateMutability": "view",
      "type": "function"
    },
    {
      "inputs": [
        {
          "internalType": "address",
          "name": "",
          "type": "address"
        }
      ],
      "name": "authorizedManagers",
      "outputs": [
        {
          "internalType": "bool",
          "name": "",
          "type": "bool"
        }
      ],
      "stateMutability": "view",
      "type": "function"
    },
    {
      "inputs": [
        {
          "internalType": "address",
          "name": "owner",
          "type": "address"
        }
      ],
      "name": "balanceOf",
      "outputs": [
        {
          "internalType": "uint256",
          "name": "",
          "type": "uint256"
        }
      ],
      "stateMutability": "view",
      "type": "function"
    },
    {
      "inputs": [
        {
          "internalType": "uint256",
          "name": "tokenId",
          "type": "uint256"
        }
      ],
      "name": "getApproved",
      "outputs": [
        {
          "internalType": "address",
          "name": "",
          "type": "address"
        }
      ],
      "stateMutability": "view",
      "type": "function"
    },
    {
      "inputs": [
        {
          "internalType": "uint256",
          "name": "tokenId",
          "type": "uint256"
        }
      ],
      "name": "getAsset",
      "outputs": [
        {
          "components": [
            {
              "internalType": "string",
              "name": "assetType",
              "type": "string"
            },
            {
              "internalType": "uint256",
              "name": "aiValuation",
              "type": "uint256"
            },
            {
              "internalType": "uint256",
              "name": "maxLTV",
              "type": "uint256"
            },
            {
              "internalType": "uint256",
              "name": "createdAt",
              "type": "uint256"
            },
            {
              "internalType": "address",
              "name": "borrower",
              "type": "address"
            },
            {
              "internalType": "bool",
              "name": "isLocked",
              "type": "bool"
            },
            {
              "internalType": "uint256",
              "name": "loanId",
              "type": "uint256"
            }
          ],
          "internalType": "struct AssetToken.Asset",
          "name": "",
          "type": "tuple"
        }
      ],
      "stateMutability": "view",
      "type": "function"
    },
    {
      "inputs": [
        {
          "internalType": "uint256",
          "name": "tokenId",
          "type": "uint256"
        }
      ],
      "name": "getMaxLoanAmount",
      "outputs": [
        {
          "internalType": "uint256",
          "name": "",
          "type": "uint256"
        }
      ],
      "stateMutability": "view",
      "type": "function"
    },
    {
      "inputs": [
        {
          "internalType": "address",
          "name": "owner",
          "type": "address"
        },
        {
          "internalType": "address",
          "name": "operator",
          "type": "address"
        }
      ],
      "name": "isApprovedForAll",
      "outputs": [
        {
          "internalType": "bool",
          "name": "",
          "type": "bool"
        }
      ],
      "stateMutability": "view",
      "type": "function"
    },
    {
      "inputs": [
        {
          "internalType": "uint256",
          "name": "tokenId",
          "type": "uint256"
        },
        {
          "internalType": "uint256",
          "name": "loanId",
          "type": "uint256"
        }
      ],
      "name": "lockAsset",
      "outputs": [],
      "stateMutability": "nonpayable",
      "type": "function"
    },
    {
      "inputs": [
        {
          "internalType": "address",
          "name": "borrower",
          "type": "address"
        },
        {
          "internalType": "string",
          "name": "assetType",
          "type": "string"
        },
        {
          "internalType": "uint256",
          "name": "aiValuation",
          "type": "uint256"
        },
        {
          "internalType": "uint256",
          "name": "maxLTV",
          "type": "uint256"
        },
        {
          "internalType": "string",
          "name": "uri",
          "type": "string"
        }
      ],
      "name": "mintAsset",
      "outputs": [
        {
          "internalType": "uint256",
          "name": "",
          "type": "uint256"
        }
      ],
      "stateMutability": "nonpayable",
      "type": "function"
    },
    {
      "inputs": [],
      "name": "name",
      "outputs": [
        {
          "internalType": "string",
          "name": "",
          "type": "string"
        }
      ],
      "stateMutability": "view",
      "type": "function"
    },
    {
      "inputs": [],
      "name": "owner",
      "outputs": [
        {
          "internalType": "address",
          "name": "",
          "type": "address"
        }
      ],
      "stateMutability": "view",
      "type": "function"
    },
    {
      "inputs": [
        {
          "internalType": "uint256",
          "name": "tokenId",
          "type": "uint256"
        }
      ],
      "name": "ownerOf",
      "outputs": [
        {
          "internalType": "address",
          "name": "",
          "type": "address"
        }
      ],
      "stateMutability": "view",
      "type": "function"
    },
    {
      "inputs": [],
      "name": "renounceOwnership",
      "outputs": [],
      "stateMutability": "nonpayable",
      "type": "function"
    },
    {
      "inputs": [
        {
          "internalType": "address",
          "name": "from",
          "type": "address"
        },
        {
          "internalType": "address",
          "name": "to",
          "type": "address"
        },
        {
          "internalType": "uint256",
          "name": "tokenId",
          "type": "uint256"
        }
      ],
      "name": "safeTransferFrom",
      "outputs": [],
      "stateMutability": "nonpayable",
      "type": "function"
    },
    {
      "inputs": [
        {
          "internalType": "address",
          "name": "from",
          "type": "address"
        },
        {
          "internalType": "address",
          "name": "to",
          "type": "address"
        },
        {
          "internalType": "uint256",
          "name": "tokenId",
          "type": "uint256"
        },
        {
          "internalType": "bytes",
          "name": "data",
          "type": "bytes"
        }
      ],
      "name": "safeTransferFrom",
      "outputs": [],
      "stateMutability": "nonpayable",
      "type": "function"
    },
    {
      "inputs": [
        {
          "internalType": "address",
          "name": "operator",
          "type": "address"
        },
        {
          "internalType": "bool",
          "name": "approved",
          "type": "bool"
        }
      ],
      "name": "setApprovalForAll",
      "outputs": [],
      "stateMutability": "nonpayable",
      "type": "function"
    },
    {
      "inputs": [
        {
          "internalType": "address",
          "name": "manager",
          "type": "address"
        },
        {
          "internalType": "bool",
          "name": "status",
          "type": "bool"
        }
      ],
      "name": "setAuthorizedManager",
      "outputs": [],
      "stateMutability": "nonpayable",
      "type": "function"
    },
    {
      "inputs": [
        {
          "internalType": "bytes4",
          "name": "interfaceId",
          "type": "bytes4"
        }
      ],
      "name": "supportsInterface",
      "outputs": [
        {
          "internalType": "bool",
          "name": "",
          "type": "bool"
        }
      ],
      "stateMutability": "view",
      "type": "function"
    },
    {
      "inputs": [],
      "name": "symbol",
      "outputs": [
        {
          "internalType": "string",
          "name": "",
          "type": "string"
        }
      ],
      "stateMutability": "view",
      "type": "function"
    },
    {
      "inputs": [
        {
          "internalType": "uint256",
          "name": "tokenId",
          "type": "uint256"
        }
      ],
      "name": "tokenURI",
      "outputs": [
        {
          "internalType": "string",
          "name": "",
          "type": "string"
        }
      ],
      "stateMutability": "view",
      "type": "function"
    },
    {
      "inputs": [
        {
          "internalType": "address",
          "name": "from",
          "type": "address"
        },
        {
          "internalType": "address",
          "name": "to",
          "type": "address"
        },
        {
          "internalType": "uint256",
          "name": "tokenId",
          "type": "uint256"
        }
      ],
      "name": "transferFrom",
      "outputs": [],
      "stateMutability": "nonpayable",
      "type": "function"
    },
    {
      "inputs": [
        {
          "internalType": "address",
          "name": "newOwner",
          "type": "address"
        }
      ],
      "name": "transferOwnership",
      "outputs": [],
      "stateMutability": "nonpayable",
      "type": "function"
    },
    {
      "inputs": [
        {
          "internalType": "uint256",
          "name": "tokenId",
          "type": "uint256"
        }
      ],
      "name": "unlockAsset",
      "outputs": [],
      "stateMutability": "nonpayable",
      "type": "function"
    }
  ],
  "bytecode": "0x60806040523480156200001157600080fd5b50336040518060400160405280600f81526020016e151bdad95b93195b9908105cdcd95d608a1b81525060405180604001604052806003815260200162544c4160e81b8152508160009081620000689190620001b2565b506001620000778282620001b2565b5050506001600160a01b038116620000a957604051631e4fbdf760e01b81526000600482015260240160405180910390fd5b620000b481620000bb565b506200027e565b600780546001600160a01b038381166001600160a01b0319831681179093556040519116919082907f8be0079c531659141344cd1fd0a4f28419497f9722a3daafe3b4186f6b6457e090600090a35050565b634e487b7160e01b600052604160045260246000fd5b600181811c908216806200013857607f821691505b6020821081036200015957634e487b7160e01b600052602260045260246000fd5b50919050565b601f821115620001ad57600081815260208120601f850160051c81016020861015620001885750805b601f850160051c820191505b81811015620001a95782815560010162000194565b5050505b505050565b81516001600160401b03811115620001ce57620001ce6200010d565b620001e681620001df845462000123565b846200015f565b602080601f8311600181146200021e5760008415620002055750858301515b600019600386901b1c1916600185901b178555620001a9565b600085815260208120601f198616915b828110156200024f578886015182559484019460019091019084016200022e565b50858210156200026e5787850151600019600388901b60f8161c191681555b5050505050600190811b01905550565b611fea806200028e6000396000f3fe608060405234801561001057600080fd5b50600436106101585760003560e01c806395d89b41116100c3578063cf35bdd01161007c578063cf35bdd0146102ea578063d9632dd514610310578063e95f2c7d14610323578063e985e9c514610336578063eac8f5b814610349578063f2fde38b1461036957600080fd5b806395d89b4114610283578063a22cb4651461028b578063afc581891461029e578063b88d4fde146102b1578063c87b56dd146102c4578063cc695707146102d757600080fd5b80632b71fb3a116101155780632b71fb3a1461021057806342842e0e146102235780636352211e1461023657806370a0823114610249578063715018a61461026a5780638da5cb5b1461027257600080fd5b806301ffc9a71461015d57806306fdde0314610185578063081812fc1461019a578063095ea7b3146101c55780630a3cb21b146101da57806323b872dd146101fd575b600080fd5b61017061016b3660046118fe565b61037c565b60405190151581526020015b60405180910390f35b61018d61038d565b60405161017c919061196b565b6101ad6101a836600461197e565b61041f565b6040516001600160a01b03909116815260200161017c565b6101d86101d33660046119b3565b610448565b005b6101706101e83660046119dd565b600a6020526000908152604090205460ff1681565b6101d861020b3660046119f8565b610457565b6101d861021e366004611a34565b6104e7565b6101d86102313660046119f8565b61054e565b6101ad61024436600461197e565b61056e565b61025c6102573660046119dd565b610579565b60405190815260200161017c565b6101d86105c1565b6007546001600160a01b03166101ad565b61018d6105d5565b6101d8610299366004611a34565b6105e4565b6101d86102ac36600461197e565b6105ef565b6101d86102bf366004611afc565b61071b565b61018d6102d236600461197e565b610733565b61025c6102e5366004611b98565b61073e565b6102fd6102f836600461197e565b61096f565b60405161017c9796959493929190611c20565b6101d861031e366004611c6f565b610a43565b61025c61033136600461197e565b610b7e565b610170610344366004611c91565b610cde565b61035c61035736600461197e565b610d0c565b60405161017c9190611cc4565b6101d86103773660046119dd565b610e89565b600061038782610ec7565b92915050565b60606000805461039c90611d33565b80601f01602080910402602001604051908101604052809291908181526020018280546103c890611d33565b80156104155780601f106103ea57610100808354040283529160200191610415565b820191906000526020600020905b8154815290600101906020018083116103f857829003601f168201915b5050505050905090565b600061042a82610eec565b506000828152600460205260409020546001600160a01b0316610387565b610453828233610f25565b5050565b6001600160a01b03821661048657604051633250574960e11b8152600060048201526024015b60405180910390fd5b6000610493838333610f32565b9050836001600160a01b0316816001600160a01b0316146104e1576040516364283d7b60e01b81526001600160a01b038086166004830152602482018490528216604482015260640161047d565b50505050565b6104ef610fba565b6001600160a01b0382166000818152600a6020908152604091829020805460ff191685151590811790915591519182527fde2879b38430cbc20b1709e6fa4a18f45793cfb37baa97f594b183021eca6d7d910160405180910390a25050565b6105698383836040518060200160405280600081525061071b565b505050565b600061038782610eec565b60006001600160a01b0382166105a5576040516322718ad960e21b81526000600482015260240161047d565b506001600160a01b031660009081526003602052604090205490565b6105c9610fba565b6105d36000610fe7565b565b60606001805461039c90611d33565b610453338383611039565b336000908152600a602052604090205460ff1661063f5760405162461bcd60e51b815260206004820152600e60248201526d139bdd08185d5d1a1bdc9a5e995960921b604482015260640161047d565b6000818152600260205260409020546001600160a01b03166106735760405162461bcd60e51b815260040161047d90611d6d565b600081815260096020526040902060040154600160a01b900460ff166106ce5760405162461bcd60e51b815260206004820152601060248201526f105cdcd95d081b9bdd081b1bd8dad95960821b604482015260640161047d565b60008181526009602052604080822060048101805460ff60a01b191690556005018290555182917f55b5474fd09c585b4ca3463c4f87bc08db9c2a4b4872b77f272b301242f17a4891a250565b610726848484610457565b6104e133858585856110d8565b606061038782611203565b6000610748610fba565b6001600160a01b03861661079e5760405162461bcd60e51b815260206004820152601860248201527f496e76616c696420626f72726f77657220616464726573730000000000000000604482015260640161047d565b600084116107ee5760405162461bcd60e51b815260206004820181905260248201527f56616c756174696f6e206d7573742062652067726561746572207468616e2030604482015260640161047d565b60008311801561080057506127108311155b6108405760405162461bcd60e51b8152602060048201526011602482015270496e76616c6964204c545620726174696f60781b604482015260640161047d565b600880546000918261085183611db1565b919050559050610861878261130c565b61086b8184611326565b6040805160e08101825287815260208082018890528183018790524260608301526001600160a01b038a166080830152600060a0830181905260c08301819052848152600990915291909120815181906108c59082611e10565b5060208201516001820155604080830151600283015560608301516003830155608083015160048301805460a08601511515600160a01b026001600160a81b03199091166001600160a01b039384161717905560c090930151600590920191909155519088169082907f547a0605917937829f968c64484ab42901fa23cf9bdd38b5c28bd707a180dbc89061095d908a908a90611ed0565b60405180910390a39695505050505050565b60096020526000908152604090208054819061098a90611d33565b80601f01602080910402602001604051908101604052809291908181526020018280546109b690611d33565b8015610a035780601f106109d857610100808354040283529160200191610a03565b820191906000526020600020905b8154815290600101906020018083116109e657829003601f168201915b50505060018401546002850154600386015460048701546005909701549596929591945092506001600160a01b0382169160ff600160a01b909104169087565b336000908152600a602052604090205460ff16610a935760405162461bcd60e51b815260206004820152600e60248201526d139bdd08185d5d1a1bdc9a5e995960921b604482015260640161047d565b6000828152600260205260409020546001600160a01b0316610ac75760405162461bcd60e51b815260040161047d90611d6d565b600082815260096020526040902060040154600160a01b900460ff1615610b275760405162461bcd60e51b8152602060048201526014602482015273105cdcd95d08185b1c9958591e481b1bd8dad95960621b604482015260640161047d565b60008281526009602052604080822060048101805460ff60a01b1916600160a01b17905560050183905551829184917fa379a41787135db8c779ef58cffe55aea43366b80fc86f3cd829f851883843519190a35050565b6000818152600260205260408120546001600160a01b0316610bb25760405162461bcd60e51b815260040161047d90611d6d565b600082815260096020526040808220815160e08101909252805482908290610bd990611d33565b80601f0160208091040260200160405190810160405280929190818152602001828054610c0590611d33565b8015610c525780601f10610c2757610100808354040283529160200191610c52565b820191906000526020600020905b815481529060010190602001808311610c3557829003601f168201915b5050509183525050600182015460208083019190915260028301546040808401919091526003840154606084015260048401546001600160a01b0381166080850152600160a01b900460ff16151560a084015260059093015460c090920191909152908201519082015191925061271091610ccd9190611ef2565b610cd79190611f09565b9392505050565b6001600160a01b03918216600090815260056020908152604080832093909416825291909152205460ff1690565b610d576040518060e001604052806060815260200160008152602001600081526020016000815260200160006001600160a01b03168152602001600015158152602001600081525090565b6000828152600260205260409020546001600160a01b0316610d8b5760405162461bcd60e51b815260040161047d90611d6d565b60008281526009602052604090819020815160e08101909252805482908290610db390611d33565b80601f0160208091040260200160405190810160405280929190818152602001828054610ddf90611d33565b8015610e2c5780601f10610e0157610100808354040283529160200191610e2c565b820191906000526020600020905b815481529060010190602001808311610e0f57829003601f168201915b505050918352505060018201546020820152600282015460408201526003820154606082015260048201546001600160a01b0381166080830152600160a01b900460ff16151560a082015260059091015460c09091015292915050565b610e91610fba565b6001600160a01b038116610ebb57604051631e4fbdf760e01b81526000600482015260240161047d565b610ec481610fe7565b50565b60006001600160e01b03198216632483248360e11b1480610387575061038782611376565b6000818152600260205260408120546001600160a01b03168061038757604051637e27328960e01b81526004810184905260240161047d565b61056983838360016113c6565b6000600854831015610fa757600083815260096020526040902060040154600160a01b900460ff1615610fa75760405162461bcd60e51b815260206004820152601c60248201527f43616e6e6f74207472616e73666572206c6f636b656420617373657400000000604482015260640161047d565b610fb28484846114cc565b949350505050565b6007546001600160a01b031633146105d35760405163118cdaa760e01b815233600482015260240161047d565b600780546001600160a01b038381166001600160a01b0319831681179093556040519116919082907f8be0079c531659141344cd1fd0a4f28419497f9722a3daafe3b4186f6b6457e090600090a35050565b6001600160a01b03821661106b57604051630b61174360e31b81526001600160a01b038316600482015260240161047d565b6001600160a01b03838116600081815260056020908152604080832094871680845294825291829020805460ff191686151590811790915591519182527f17307eab39ab6107e8899845ad3d59bd9653f200f220920489ca2b5937696c31910160405180910390a3505050565b6001600160a01b0383163b156111fc57604051630a85bd0160e11b81526001600160a01b0384169063150b7a029061111a908890889087908790600401611f2b565b6020604051808303816000875af1925050508015611155575060408051601f3d908101601f1916820190925261115291810190611f68565b60015b6111be573d808015611183576040519150601f19603f3d011682016040523d82523d6000602084013e611188565b606091505b5080516000036111b657604051633250574960e11b81526001600160a01b038516600482015260240161047d565b805160208201fd5b6001600160e01b03198116630a85bd0160e11b146111fa57604051633250574960e11b81526001600160a01b038516600482015260240161047d565b505b5050505050565b606061120e82610eec565b506000828152600660205260408120805461122890611d33565b80601f016020809104026020016040519081016040528092919081815260200182805461125490611d33565b80156112a15780601f10611276576101008083540402835291602001916112a1565b820191906000526020600020905b81548152906001019060200180831161128457829003601f168201915b5050505050905060006112bf60408051602081019091526000815290565b905080516000036112d1575092915050565b8151156113035780826040516020016112eb929190611f85565b60405160208183030381529060405292505050919050565b610fb2846115c5565b610453828260405180602001604052806000815250611639565b600082815260066020526040902061133e8282611e10565b506040518281527ff8e1a15aba9398e019f0b49df1a4fde98ee17ae345cb5f6b5e2c27f5033e8ce79060200160405180910390a15050565b60006001600160e01b031982166380ac58cd60e01b14806113a757506001600160e01b03198216635b5e139f60e01b145b8061038757506301ffc9a760e01b6001600160e01b0319831614610387565b80806113da57506001600160a01b03821615155b1561149c5760006113ea84610eec565b90506001600160a01b038316158015906114165750826001600160a01b0316816001600160a01b031614155b801561142957506114278184610cde565b155b156114525760405163a9fbf51f60e01b81526001600160a01b038416600482015260240161047d565b811561149a5783856001600160a01b0316826001600160a01b03167f8c5be1e5ebec7d5bd14f71427d1e84f3dd0314c0f7b2291e5b200ac8c7c3b92560405160405180910390a45b505b5050600090815260046020526040902080546001600160a01b0319166001600160a01b0392909216919091179055565b6000828152600260205260408120546001600160a01b03908116908316156114f9576114f9818486611651565b6001600160a01b03811615611537576115166000856000806113c6565b6001600160a01b038116600090815260036020526040902080546000190190555b6001600160a01b03851615611566576001600160a01b0385166000908152600360205260409020805460010190555b60008481526002602052604080822080546001600160a01b0319166001600160a01b0389811691821790925591518793918516917fddf252ad1be2c89b69c2b068fc378daa952ba7f163c4a11628f55a4df523b3ef91a4949350505050565b60606115d082610eec565b5060006115e860408051602081019091526000815290565b905060008151116116085760405180602001604052806000815250610cd7565b80611612846116b5565b604051602001611623929190611f85565b6040516020818303038152906040529392505050565b6116438383611748565b6105693360008585856110d8565b61165c8383836117ad565b610569576001600160a01b03831661168a57604051637e27328960e01b81526004810182905260240161047d565b60405163177e802f60e01b81526001600160a01b03831660048201526024810182905260440161047d565b606060006116c283611810565b600101905060008167ffffffffffffffff8111156116e2576116e2611a70565b6040519080825280601f01601f19166020018201604052801561170c576020820181803683370190505b5090508181016020015b600019016f181899199a1a9b1b9c1cb0b131b232b360811b600a86061a8153600a850494508461171657509392505050565b6001600160a01b03821661177257604051633250574960e11b81526000600482015260240161047d565b600061178083836000610f32565b90506001600160a01b03811615610569576040516339e3563760e11b81526000600482015260240161047d565b60006001600160a01b03831615801590610fb25750826001600160a01b0316846001600160a01b031614806117e757506117e78484610cde565b80610fb25750506000908152600460205260409020546001600160a01b03908116911614919050565b60008072184f03e93ff9f4daa797ed6e38ed64bf6a1f0160401b831061184f5772184f03e93ff9f4daa797ed6e38ed64bf6a1f0160401b830492506040015b6d04ee2d6d415b85acef8100000000831061187b576d04ee2d6d415b85acef8100000000830492506020015b662386f26fc10000831061189957662386f26fc10000830492506010015b6305f5e10083106118b1576305f5e100830492506008015b61271083106118c557612710830492506004015b606483106118d7576064830492506002015b600a83106103875760010192915050565b6001600160e01b031981168114610ec457600080fd5b60006020828403121561191057600080fd5b8135610cd7816118e8565b60005b8381101561193657818101518382015260200161191e565b50506000910152565b6000815180845261195781602086016020860161191b565b601f01601f19169290920160200192915050565b602081526000610cd7602083018461193f565b60006020828403121561199057600080fd5b5035919050565b80356001600160a01b03811681146119ae57600080fd5b919050565b600080604083850312156119c657600080fd5b6119cf83611997565b946020939093013593505050565b6000602082840312156119ef57600080fd5b610cd782611997565b600080600060608486031215611a0d57600080fd5b611a1684611997565b9250611a2460208501611997565b9150604084013590509250925092565b60008060408385031215611a4757600080fd5b611a5083611997565b915060208301358015158114611a6557600080fd5b809150509250929050565b634e487b7160e01b600052604160045260246000fd5b600067ffffffffffffffff80841115611aa157611aa1611a70565b604051601f8501601f19908116603f01168101908282118183101715611ac957611ac9611a70565b81604052809350858152868686011115611ae257600080fd5b858560208301376000602087830101525050509392505050565b60008060008060808587031215611b1257600080fd5b611b1b85611997565b9350611b2960208601611997565b925060408501359150606085013567ffffffffffffffff811115611b4c57600080fd5b8501601f81018713611b5d57600080fd5b611b6c87823560208401611a86565b91505092959194509250565b600082601f830112611b8957600080fd5b610cd783833560208501611a86565b600080600080600060a08688031215611bb057600080fd5b611bb986611997565b9450602086013567ffffffffffffffff80821115611bd657600080fd5b611be289838a01611b78565b955060408801359450606088013593506080880135915080821115611c0657600080fd5b50611c1388828901611b78565b9150509295509295909350565b60e081526000611c3360e083018a61193f565b602083019890985250604081019590955260608501939093526001600160a01b03919091166080840152151560a083015260c090910152919050565b60008060408385031215611c8257600080fd5b50508035926020909101359150565b60008060408385031215611ca457600080fd5b611cad83611997565b9150611cbb60208401611997565b90509250929050565b602081526000825160e06020840152611ce161010084018261193f565b905060208401516040840152604084015160608401526060840151608084015260018060a01b0360808501511660a084015260a0840151151560c084015260c084015160e08401528091505092915050565b600181811c90821680611d4757607f821691505b602082108103611d6757634e487b7160e01b600052602260045260246000fd5b50919050565b602080825260149082015273151bdad95b88191bd95cc81b9bdd08195e1a5cdd60621b604082015260600190565b634e487b7160e01b600052601160045260246000fd5b600060018201611dc357611dc3611d9b565b5060010190565b601f82111561056957600081815260208120601f850160051c81016020861015611df15750805b601f850160051c820191505b818110156111fa57828155600101611dfd565b815167ffffffffffffffff811115611e2a57611e2a611a70565b611e3e81611e388454611d33565b84611dca565b602080601f831160018114611e735760008415611e5b5750858301515b600019600386901b1c1916600185901b1785556111fa565b600085815260208120601f198616915b82811015611ea257888601518255948401946001909101908401611e83565b5085821015611ec05787850151600019600388901b60f8161c191681555b5050505050600190811b01905550565b604081526000611ee3604083018561193f565b90508260208301529392505050565b808202811582820484141761038757610387611d9b565b600082611f2657634e487b7160e01b600052601260045260246000fd5b500490565b6001600160a01b0385811682528416602082015260408101839052608060608201819052600090611f5e9083018461193f565b9695505050505050565b600060208284031215611f7a57600080fd5b8151610cd7816118e8565b60008351611f9781846020880161191b565b835190830190611fab81836020880161191b565b0194935050505056fea2646970667358221220fb40d851f085b1d03c315cac026ac881fb51bd6ed0e58265d124a134de9b865164736f6c63430008140033",
  "linkReferences": {},
  "deployedLinkReferences": {}
}