{
  "_format": "hh-sol-artifact-1",
  "contractName": "LoanManager",
  "sourceName": "contracts/LoanManager.sol",
  "abi": [
    {
      "inputs": [
        {
          "internalType": "address",
          "name": "_assetToken",
          "type": "address"
        },
        {
          "internalType": "address",
          "name": "_feeRecipient",
          "type": "address"
        },
        {
          "internalType": "uint256",
          "name": "_platformFee",
          "type": "uint256"
        }
      ],
      "stateMutability": "nonpayable",
      "type": "constructor"
    },
    {
      "inputs": [
        {
          "internalType": "address",
          "name": "owner",
          "type": "address"
        }
      ],
      "name": "OwnableInvalidOwner",
      "type": "error"
    },
    {
      "inputs": [
        {
          "internalType": "address",
          "name": "account",
          "type": "address"
        }
      ],
      "name": "OwnableUnauthorizedAccount",
      "type": "error"
    },
    {
      "inputs": [],
      "name": "ReentrancyGuardReentrantCall",
      "type": "error"
    },
    {
      "inputs": [
        {
          "internalType": "address",
          "name": "token",
          "type": "address"
        }
      ],
      "name": "SafeERC20FailedOperation",
      "type": "error"
    },
    {
      "anonymous": false,
      "inputs": [
        {
          "indexed": true,
          "internalType": "uint256",
          "name": "loanId",
          "type": "uint256"
        },
        {
          "indexed": true,
          "internalType": "address",
          "name": "borrower",
          "type": "address"
        },
        {
          "indexed": true,
          "internalType": "address",
          "name": "lender",
          "type": "address"
        },
        {
          "indexed": false,
          "internalType": "uint256",
          "name": "assetTokenId",
          "type": "uint256"
        },
        {
          "indexed": false,
          "internalType": "uint256",
          "name": "principal",
          "type": "uint256"
        },
        {
          "indexed": false,
          "internalType": "uint256",
          "name": "interestRate",
          "type": "uint256"
        },
        {
          "indexed": false,
          "internalType": "uint256",
          "name": "duration",
          "type": "uint256"
        }
      ],
      "name": "LoanCreated",
      "type": "event"
    },
    {
      "anonymous": false,
      "inputs": [
        {
          "indexed": true,
          "internalType": "uint256",
          "name": "loanId",
          "type": "uint256"
        },
        {
          "indexed": true,
          "internalType": "address",
          "name": "lender",
          "type": "address"
        },
        {
          "indexed": false,
          "internalType": "uint256",
          "name": "amount",
          "type": "uint256"
        }
      ],
      "name": "LoanFunded",
      "type": "event"
    },
    {
      "anonymous": false,
      "inputs": [
        {
          "indexed": true,
          "internalType": "uint256",
          "name": "loanId",
          "type": "uint256"
        },
        {
          "indexed": true,
          "internalType": "address",
          "name": "liquidator",
          "type": "address"
        },
        {
          "indexed": false,
          "internalType": "uint256",
          "name": "assetTokenId",
          "type": "uint256"
        }
      ],
      "name": "LoanLiquidated",
      "type": "event"
    },
    {
      "anonymous": false,
      "inputs": [
        {
          "indexed": true,
          "internalType": "uint256",
          "name": "loanId",
          "type": "uint256"
        },
        {
          "indexed": true,
          "internalType": "address",
          "name": "borrower",
          "type": "address"
        }
      ],
      "name": "LoanRepaid",
      "type": "event"
    },
    {
      "anonymous": false,
      "inputs": [
        {
          "indexed": true,
          "internalType": "address",
          "name": "previousOwner",
          "type": "address"
        },
        {
          "indexed": true,
          "internalType": "address",
          "name": "newOwner",
          "type": "address"
        }
      ],
      "name": "OwnershipTransferred",
      "type": "event"
    },
    {
      "anonymous": false,
      "inputs": [
        {
          "indexed": true,
          "internalType": "uint256",
          "name": "loanId",
          "type": "uint256"
        },
        {
          "indexed": true,
          "internalType": "address",
          "name": "borrower",
          "type": "address"
        },
        {
          "indexed": false,
          "internalType": "uint256",
          "name": "amount",
          "type": "uint256"
        },
        {
          "indexed": false,
          "internalType": "uint256",
          "name": "remaining",
          "type": "uint256"
        }
      ],
      "name": "RepaymentMade",
      "type": "event"
    },
    {
      "anonymous": false,
      "inputs": [
        {
          "indexed": true,
          "internalType": "address",
          "name": "stablecoin",
          "type": "address"
        }
      ],
      "name": "StablecoinAdded",
      "type": "event"
    },
    {
      "anonymous": false,
      "inputs": [
        {
          "indexed": true,
          "internalType": "address",
          "name": "stablecoin",
          "type": "address"
        }
      ],
      "name": "StablecoinRemoved",
      "type": "event"
    },
    {
      "inputs": [
        {
          "internalType": "address",
          "name": "stablecoin",
          "type": "address"
        }
      ],
      "name": "addSupportedStablecoin",
      "outputs": [],
      "stateMutability": "nonpayable",
      "type": "function"
    },
    {
      "inputs": [
        {
          "internalType": "uint256",
          "name": "",
          "type": "uint256"
        }
      ],
      "name": "assetToLoan",
      "outputs": [
        {
          "internalType": "uint256",
          "name": "",
          "type": "uint256"
        }
      ],
      "stateMutability": "view",
      "type": "function"
    },
    {
      "inputs": [],
      "name": "assetToken",
      "outputs": [
        {
          "internalType": "contract AssetToken",
          "name": "",
          "type": "address"
        }
      ],
      "stateMutability": "view",
      "type": "function"
    },
    {
      "inputs": [
        {
          "internalType": "address",
          "name": "",
          "type": "address"
        },
        {
          "internalType": "uint256",
          "name": "",
          "type": "uint256"
        }
      ],
      "name": "borrowerLoans",
      "outputs": [
        {
          "internalType": "uint256",
          "name": "",
          "type": "uint256"
        }
      ],
      "stateMutability": "view",
      "type": "function"
    },
    {
      "inputs": [
        {
          "internalType": "uint256",
          "name": "assetTokenId",
          "type": "uint256"
        },
        {
          "internalType": "uint256",
          "name": "principal",
          "type": "uint256"
        },
        {
          "internalType": "uint256",
          "name": "interestRate",
          "type": "uint256"
        },
        {
          "internalType": "uint256",
          "name": "duration",
          "type": "uint256"
        },
        {
          "internalType": "address",
          "name": "stablecoin",
          "type": "address"
        }
      ],
      "name": "createLoan",
      "outputs": [
        {
          "internalType": "uint256",
          "name": "",
          "type": "uint256"
        }
      ],
      "stateMutability": "nonpayable",
      "type": "function"
    },
    {
      "inputs": [
        {
          "internalType": "string",
          "name": "assetType",
          "type": "string"
        },
        {
          "internalType": "uint256",
          "name": "aiValuation",
          "type": "uint256"
        },
        {
          "internalType": "uint256",
          "name": "maxLTV",
          "type": "uint256"
        },
        {
          "internalType": "string",
          "name": "uri",
          "type": "string"
        },
        {
          "internalType": "uint256",
          "name": "principal",
          "type": "uint256"
        },
        {
          "internalType": "uint256",
          "name": "interestRate",
          "type": "uint256"
        },
        {
          "internalType": "uint256",
          "name": "duration",
          "type": "uint256"
        },
        {
          "internalType": "address",
          "name": "stablecoin",
          "type": "address"
        }
      ],
      "name": "createLoanWithMinting",
      "outputs": [
        {
          "internalType": "uint256",
          "name": "loanId",
          "type": "uint256"
        },
        {
          "internalType": "uint256",
          "name": "tokenId",
          "type": "uint256"
        }
      ],
      "stateMutability": "nonpayable",
      "type": "function"
    },
    {
      "inputs": [],
      "name": "feeRecipient",
      "outputs": [
        {
          "internalType": "address",
          "name": "",
          "type": "address"
        }
      ],
      "stateMutability": "view",
      "type": "function"
    },
    {
      "inputs": [
        {
          "internalType": "uint256",
          "name": "loanId",
          "type": "uint256"
        }
      ],
      "name": "fundLoan",
      "outputs": [],
      "stateMutability": "nonpayable",
      "type": "function"
    },
    {
      "inputs": [
        {
          "internalType": "address",
          "name": "borrower",
          "type": "address"
        }
      ],
      "name": "getBorrowerLoans",
      "outputs": [
        {
          "internalType": "uint256[]",
          "name": "",
          "type": "uint256[]"
        }
      ],
      "stateMutability": "view",
      "type": "function"
    },
    {
      "inputs": [
        {
          "internalType": "uint256",
          "name": "loanId",
          "type": "uint256"
        }
      ],
      "name": "getLoan",
      "outputs": [
        {
          "components": [
            {
              "internalType": "uint256",
              "name": "loanId",
              "type": "uint256"
            },
            {
              "internalType": "address",
              "name": "borrower",
              "type": "address"
            },
            {
              "internalType": "address",
              "name": "lender",
              "type": "address"
            },
            {
              "internalType": "uint256",
              "name": "assetTokenId",
              "type": "uint256"
            },
            {
              "internalType": "uint256",
              "name": "principal",
              "type": "uint256"
            },
            {
              "internalType": "uint256",
              "name": "interestRate",
              "type": "uint256"
            },
            {
              "internalType": "uint256",
              "name": "duration",
              "type": "uint256"
            },
            {
              "internalType": "uint256",
              "name": "startTime",
              "type": "uint256"
            },
            {
              "internalType": "uint256",
              "name": "totalRepayment",
              "type": "uint256"
            },
            {
              "internalType": "uint256",
              "name": "amountRepaid",
              "type": "uint256"
            },
            {
              "internalType": "enum LoanManager.LoanStatus",
              "name": "status",
              "type": "uint8"
            },
            {
              "internalType": "address",
              "name": "stablecoin",
              "type": "address"
            }
          ],
          "internalType": "struct LoanManager.Loan",
          "name": "",
          "type": "tuple"
        }
      ],
      "stateMutability": "view",
      "type": "function"
    },
    {
      "inputs": [
        {
          "internalType": "uint256",
          "name": "loanId",
          "type": "uint256"
        }
      ],
      "name": "isLoanOverdue",
      "outputs": [
        {
          "internalType": "bool",
          "name": "",
          "type": "bool"
        }
      ],
      "stateMutability": "view",
      "type": "function"
    },
    {
      "inputs": [
        {
          "internalType": "uint256",
          "name": "loanId",
          "type": "uint256"
        }
      ],
      "name": "liquidateLoan",
      "outputs": [],
      "stateMutability": "nonpayable",
      "type": "function"
    },
    {
      "inputs": [],
      "name": "liquidationGracePeriod",
      "outputs": [
        {
          "internalType": "uint256",
          "name": "",
          "type": "uint256"
        }
      ],
      "stateMutability": "view",
      "type": "function"
    },
    {
      "inputs": [
        {
          "internalType": "uint256",
          "name": "",
          "type": "uint256"
        }
      ],
      "name": "loans",
      "outputs": [
        {
          "internalType": "uint256",
          "name": "loanId",
          "type": "uint256"
        },
        {
          "internalType": "address",
          "name": "borrower",
          "type": "address"
        },
        {
          "internalType": "address",
          "name": "lender",
          "type": "address"
        },
        {
          "internalType": "uint256",
          "name": "assetTokenId",
          "type": "uint256"
        },
        {
          "internalType": "uint256",
          "name": "principal",
          "type": "uint256"
        },
        {
          "internalType": "uint256",
          "name": "interestRate",
          "type": "uint256"
        },
        {
          "internalType": "uint256",
          "name": "duration",
          "type": "uint256"
        },
        {
          "internalType": "uint256",
          "name": "startTime",
          "type": "uint256"
        },
        {
          "internalType": "uint256",
          "name": "totalRepayment",
          "type": "uint256"
        },
        {
          "internalType": "uint256",
          "name": "amountRepaid",
          "type": "uint256"
        },
        {
          "internalType": "enum LoanManager.LoanStatus",
          "name": "status",
          "type": "uint8"
        },
        {
          "internalType": "address",
          "name": "stablecoin",
          "type": "address"
        }
      ],
      "stateMutability": "view",
      "type": "function"
    },
    {
      "inputs": [
        {
          "internalType": "uint256",
          "name": "loanId",
          "type": "uint256"
        },
        {
          "internalType": "uint256",
          "name": "amount",
          "type": "uint256"
        }
      ],
      "name": "makeRepayment",
      "outputs": [],
      "stateMutability": "nonpayable",
      "type": "function"
    },
    {
      "inputs": [],
      "name": "owner",
      "outputs": [
        {
          "internalType": "address",
          "name": "",
          "type": "address"
        }
      ],
      "stateMutability": "view",
      "type": "function"
    },
    {
      "inputs": [],
      "name": "platformFee",
      "outputs": [
        {
          "internalType": "uint256",
          "name": "",
          "type": "uint256"
        }
      ],
      "stateMutability": "view",
      "type": "function"
    },
    {
      "inputs": [
        {
          "internalType": "address",
          "name": "stablecoin",
          "type": "address"
        }
      ],
      "name": "removeSupportedStablecoin",
      "outputs": [],
      "stateMutability": "nonpayable",
      "type": "function"
    },
    {
      "inputs": [],
      "name": "renounceOwnership",
      "outputs": [],
      "stateMutability": "nonpayable",
      "type": "function"
    },
    {
      "inputs": [
        {
          "internalType": "address",
          "name": "_feeRecipient",
          "type": "address"
        }
      ],
      "name": "setFeeRecipient",
      "outputs": [],
      "stateMutability": "nonpayable",
      "type": "function"
    },
    {
      "inputs": [
        {
          "internalType": "uint256",
          "name": "_gracePeriod",
          "type": "uint256"
        }
      ],
      "name": "setLiquidationGracePeriod",
      "outputs": [],
      "stateMutability": "nonpayable",
      "type": "function"
    },
    {
      "inputs": [
        {
          "internalType": "uint256",
          "name": "_platformFee",
          "type": "uint256"
        }
      ],
      "name": "setPlatformFee",
      "outputs": [],
      "stateMutability": "nonpayable",
      "type": "function"
    },
    {
      "inputs": [
        {
          "internalType": "address",
          "name": "",
          "type": "address"
        }
      ],
      "name": "supportedStablecoins",
      "outputs": [
        {
          "internalType": "bool",
          "name": "",
          "type": "bool"
        }
      ],
      "stateMutability": "view",
      "type": "function"
    },
    {
      "inputs": [
        {
          "internalType": "address",
          "name": "newOwner",
          "type": "address"
        }
      ],
      "name": "transferOwnership",
      "outputs": [],
      "stateMutability": "nonpayable",
      "type": "function"
    }
  ],
  "bytecode": "0x608060405262093a80600a553480156200001857600080fd5b50604051620027a2380380620027a28339810160408190526200003b916200021d565b33806200006357604051631e4fbdf760e01b8152600060048201526024015b60405180910390fd5b6200006e81620001b0565b50600180556001600160a01b038316620000cb5760405162461bcd60e51b815260206004820152601b60248201527f496e76616c696420617373657420746f6b656e2061646472657373000000000060448201526064016200005a565b6001600160a01b038216620001235760405162461bcd60e51b815260206004820152601560248201527f496e76616c69642066656520726563697069656e74000000000000000000000060448201526064016200005a565b6103e8811115620001775760405162461bcd60e51b815260206004820152601560248201527f506c6174666f726d2066656520746f6f2068696768000000000000000000000060448201526064016200005a565b600280546001600160a01b039485166001600160a01b03199182161790915560098054939094169216919091179091556008556200025e565b600080546001600160a01b038381166001600160a01b0319831681178455604051919092169283917f8be0079c531659141344cd1fd0a4f28419497f9722a3daafe3b4186f6b6457e09190a35050565b80516001600160a01b03811681146200021857600080fd5b919050565b6000806000606084860312156200023357600080fd5b6200023e8462000200565b92506200024e6020850162000200565b9150604084015190509250925092565b612534806200026e6000396000f3fe608060405234801561001057600080fd5b50600436106101585760003560e01c80638b0de745116100c3578063d5d3f78b1161007c578063d5d3f78b1461030e578063e1ec3c6814610321578063e3ed1902146103b9578063e74b981b146103cc578063eee8b7ff146103df578063f2fde38b146103ff57600080fd5b80638b0de7451461026c5780638da5cb5b14610294578063b1485b33146102a5578063bf7d9119146102b8578063ccdd9f5d146102db578063d31f1b3e146102ee57600080fd5b8063469048401161011557806346904840146101f8578063504006ca1461020b57806355f7e7891461022b5780636b58359e1461023e578063715018a614610251578063846b909a1461025957600080fd5b80631083f7611461015d57806312e8e2c31461018d57806316a6c4c5146101a257806324532867146101b957806326232a2e146101cc5780633b498602146101d5575b600080fd5b600254610170906001600160a01b031681565b6040516001600160a01b0390911681526020015b60405180910390f35b6101a061019b366004611e17565b610412565b005b6101ab600a5481565b604051908152602001610184565b6101a06101c7366004611e45565b610465565b6101ab60085481565b6101e86101e3366004611e17565b61050f565b6040519015158152602001610184565b600954610170906001600160a01b031681565b61021e610219366004611e17565b61063e565b6040516101849190611ea1565b6101ab610239366004611f58565b610728565b6101a061024c366004611e17565b610d5e565b6101a0610d6b565b6101a0610267366004611e17565b610d7f565b61027f61027a366004612093565b610f80565b60408051928352602083019190915201610184565b6000546001600160a01b0316610170565b6101a06102b336600461213c565b6114c3565b6101e86102c6366004611e45565b60076020526000908152604090205460ff1681565b6101a06102e9366004611e17565b6117a4565b6101ab6102fc366004611e17565b60066020526000908152604090205481565b6101a061031c366004611e45565b611a3d565b6103a161032f366004611e17565b600460208190526000918252604090912080546001820154600283015460038401549484015460058501546006860154600787015460088801546009890154600a9099015497996001600160a01b0397881699968816989097959694959394929391929160ff8216916101009004168c565b6040516101849c9b9a9998979695949392919061215e565b6101ab6103c73660046121d6565b611a8e565b6101a06103da366004611e45565b611abf565b6103f26103ed366004611e45565b611b31565b6040516101849190612202565b6101a061040d366004611e45565b611b9d565b61041a611bd8565b6103e88111156104605760405162461bcd60e51b815260206004820152600c60248201526b08ccaca40e8dede40d0d2ced60a31b60448201526064015b60405180910390fd5b600855565b61046d611bd8565b6001600160a01b0381166104c35760405162461bcd60e51b815260206004820152601a60248201527f496e76616c696420737461626c65636f696e20616464726573730000000000006044820152606401610457565b6001600160a01b038116600081815260076020526040808220805460ff19166001179055517f3db297c09c19972ba6a701ff373ab97e21ff1e4992e863c7abe44e9b2fed08479190a250565b60008181526004602081815260408084208151610180810183528154815260018201546001600160a01b03908116948201949094526002820154909316918301919091526003808201546060840152928101546080830152600581015460a0830152600681015460c0830152600781015460e083015260088101546101008301526009810154610120830152600a810154849361014084019160ff16908111156105bb576105bb611e69565b60038111156105cc576105cc611e69565b8152600a919091015461010090046001600160a01b031660209091015290506000816101400151600381111561060457610604611e69565b141580610613575060e0810151155b156106215750600092915050565b8060c001518160e00151610635919061225c565b42119392505050565b610646611d93565b6000828152600460208181526040928390208351610180810185528154815260018201546001600160a01b03908116938201939093526002820154909216938201939093526003808401546060830152918301546080820152600583015460a0820152600683015460c0820152600783015460e082015260088301546101008201526009830154610120820152600a83015490929161014084019160ff16908111156106f4576106f4611e69565b600381111561070557610705611e69565b8152600a919091015461010090046001600160a01b031660209091015292915050565b6000610732611c05565b6001600160a01b03821660009081526007602052604090205460ff166107955760405162461bcd60e51b815260206004820152601860248201527714dd18589b1958dbda5b881b9bdd081cdd5c1c1bdc9d195960421b6044820152606401610457565b600085116107e55760405162461bcd60e51b815260206004820181905260248201527f5072696e636970616c206d7573742062652067726561746572207468616e20306044820152606401610457565b600083116108355760405162461bcd60e51b815260206004820152601f60248201527f4475726174696f6e206d7573742062652067726561746572207468616e2030006044820152606401610457565b6127108411156108805760405162461bcd60e51b8152602060048201526016602482015275092dce8cae4cae6e840e4c2e8ca40e8dede40d0d2ced60531b6044820152606401610457565b6002546040516331a9108f60e11b81526004810188905233916001600160a01b031690636352211e90602401602060405180830381865afa1580156108c9573d6000803e3d6000fd5b505050506040513d601f19601f820116820180604052508101906108ed9190612285565b6001600160a01b0316146109355760405162461bcd60e51b815260206004820152600f60248201526e2737ba1030b9b9b2ba1037bbb732b960891b6044820152606401610457565b600254604051631d591eb760e31b8152600481018890526000916001600160a01b03169063eac8f5b890602401600060405180830381865afa15801561097f573d6000803e3d6000fd5b505050506040513d6000823e601f3d908101601f191682016040526109a79190810190612323565b90508060a00151156109f25760405162461bcd60e51b8152602060048201526014602482015273105cdcd95d08185b1c9958591e481b1bd8dad95960621b6044820152606401610457565b60025460405163e95f2c7d60e01b8152600481018990526000916001600160a01b03169063e95f2c7d90602401602060405180830381865afa158015610a3c573d6000803e3d6000fd5b505050506040513d601f19601f82011682018060405250810190610a6091906123dd565b905080871115610aa95760405162461bcd60e51b81526020600482015260146024820152732637b0b71032bc31b2b2b2399036b0bc10262a2b60611b6044820152606401610457565b600064496cebb80086610abc898b6123f6565b610ac691906123f6565b610ad0919061240d565b90506000610ade828a61225c565b600380549192506000919082610af38361242f565b919050559050604051806101800160405280828152602001336001600160a01b0316815260200160006001600160a01b031681526020018c81526020018b81526020018a8152602001898152602001600081526020018381526020016000815260200160006003811115610b6957610b69611e69565b81526001600160a01b03808a16602092830152600084815260048084526040918290208551815593850151600180860180549286166001600160a01b03199384161790559286015160028601805491909516911617909255606084015160038085019190915560808501519284019290925560a0840151600584015560c0840151600684015560e0840151600784015561010084015160088401556101208401516009840155610140840151600a840180549193909260ff1990921691908490811115610c3857610c38611e69565b02179055506101609190910151600a9091018054610100600160a81b0319166101006001600160a01b03938416021790553360009081526005602090815260408083208054600181018255908452828420018590558e8352600690915290819020839055600254905163d9632dd560e01b8152600481018e90526024810184905291169063d9632dd590604401600060405180830381600087803b158015610cdf57600080fd5b505af1158015610cf3573d6000803e3d6000fd5b5050604080518e8152602081018e90529081018c9052606081018b90526000925033915083907fe1032cc37af020767fb800df5603de546dbfb9fe6efd5a435f5654ebec1e43029060800160405180910390a4945050505050610d5560018055565b95945050505050565b610d66611bd8565b600a55565b610d73611bd8565b610d7d6000611c2f565b565b610d87611c05565b600081815260046020526040812090600a82015460ff166003811115610daf57610daf611e69565b14610dcc5760405162461bcd60e51b815260040161045790612448565b60028101546001600160a01b031615610e1d5760405162461bcd60e51b8152602060048201526013602482015272131bd85b88185b1c9958591e48199d5b991959606a1b6044820152606401610457565b600781015415610e665760405162461bcd60e51b8152602060048201526014602482015273131bd85b88185b1c9958591e481cdd185c9d195960621b6044820152606401610457565b6004810154600a820154610e8d916101009091046001600160a01b03169033903090611c7f565b60006127106008548360040154610ea491906123f6565b610eae919061240d565b90506000818360040154610ec29190612471565b90508115610eee57600954600a840154610eee916001600160a01b036101009092048216911684611cec565b6001830154600a840154610f14916001600160a01b036101009092048216911683611cec565b6002830180546001600160a01b03191633908117909155426007850155600484015460405186917fbd7ef6c6281278f6c8ac4ae9ef2f205b52425813c288dd47c377cb6b59c5076e91610f6991815260200190565b60405180910390a3505050610f7d60018055565b50565b600080610f8b611c05565b6001600160a01b03831660009081526007602052604090205460ff16610fee5760405162461bcd60e51b815260206004820152601860248201527714dd18589b1958dbda5b881b9bdd081cdd5c1c1bdc9d195960421b6044820152606401610457565b6000861161103e5760405162461bcd60e51b815260206004820181905260248201527f5072696e636970616c206d7573742062652067726561746572207468616e20306044820152606401610457565b6000841161108e5760405162461bcd60e51b815260206004820152601f60248201527f4475726174696f6e206d7573742062652067726561746572207468616e2030006044820152606401610457565b6127108511156110d95760405162461bcd60e51b8152602060048201526016602482015275092dce8cae4cae6e840e4c2e8ca40e8dede40d0d2ced60531b6044820152606401610457565b60025460405163cc69570760e01b81526001600160a01b039091169063cc695707906111119033908e908e908e908e906004016124b0565b6020604051808303816000875af1158015611130573d6000803e3d6000fd5b505050506040513d601f19601f8201168201806040525081019061115491906123dd565b60025460405163e95f2c7d60e01b8152600481018390529192506000916001600160a01b039091169063e95f2c7d90602401602060405180830381865afa1580156111a3573d6000803e3d6000fd5b505050506040513d601f19601f820116820180604052508101906111c791906123dd565b9050808711156112105760405162461bcd60e51b81526020600482015260146024820152732637b0b71032bc31b2b2b2399036b0bc10262a2b60611b6044820152606401610457565b600064496cebb80086611223898b6123f6565b61122d91906123f6565b611237919061240d565b90506000611245828a61225c565b6003805491925060006112578361242f565b919050559450604051806101800160405280868152602001336001600160a01b0316815260200160006001600160a01b031681526020018581526020018a81526020018981526020018881526020016000815260200182815260200160008152602001600060038111156112cd576112cd611e69565b81526001600160a01b03808916602092830152600088815260048084526040918290208551815593850151600180860180549286166001600160a01b03199384161790559286015160028601805491909516911617909255606084015160038085019190915560808501519284019290925560a0840151600584015560c0840151600684015560e0840151600784015561010084015160088401556101208401516009840155610140840151600a840180549193909260ff199092169190849081111561139c5761139c611e69565b02179055506101609190910151600a9091018054610100600160a81b0319166101006001600160a01b0393841602179055336000908152600560209081526040808320805460018101825590845282842001899055878352600690915290819020879055600254905163d9632dd560e01b8152600481018790526024810188905291169063d9632dd590604401600060405180830381600087803b15801561144357600080fd5b505af1158015611457573d6000803e3d6000fd5b505060408051878152602081018d90529081018b9052606081018a90526000925033915087907fe1032cc37af020767fb800df5603de546dbfb9fe6efd5a435f5654ebec1e43029060800160405180910390a45050506114b660018055565b9850989650505050505050565b6114cb611c05565b600082815260046020526040812090600a82015460ff1660038111156114f3576114f3611e69565b146115105760405162461bcd60e51b815260040161045790612448565b600081600701541161155a5760405162461bcd60e51b8152602060048201526013602482015272131bd85b881b9bdd08199d5b991959081e595d606a1b6044820152606401610457565b60018101546001600160a01b031633146115a55760405162461bcd60e51b815260206004820152600c60248201526b2737ba103137b93937bbb2b960a11b6044820152606401610457565b600082116115f55760405162461bcd60e51b815260206004820152601d60248201527f416d6f756e74206d7573742062652067726561746572207468616e20300000006044820152606401610457565b60008160090154826008015461160b9190612471565b90508083111561165d5760405162461bcd60e51b815260206004820152601860248201527f416d6f756e7420657863656564732072656d61696e696e6700000000000000006044820152606401610457565b6002820154600a830154611685916001600160a01b0361010090920482169133911686611c7f565b82826009016000828254611699919061225c565b90915550339050847f0a286c61061a6ef637f0a9d98b2c8ce3e7b6c3fe924e23abd5fcb5e011020142856116cd8186612471565b6040805192835260208301919091520160405180910390a3816008015482600901541061179557600a8201805460ff19166001179055600254600383015460405163afc5818960e01b815260048101919091526001600160a01b039091169063afc5818990602401600060405180830381600087803b15801561174f57600080fd5b505af1158015611763573d6000803e3d6000fd5b50506040513392508691507fe69d7686a8bc68278b8c5419579f91716b3ef2ac2fac0d8cf80b8011f8f458a490600090a35b50506117a060018055565b5050565b6117ac611c05565b600081815260046020526040812090600a82015460ff1660038111156117d4576117d4611e69565b146117f15760405162461bcd60e51b815260040161045790612448565b600081600701541161183b5760405162461bcd60e51b8152602060048201526013602482015272131bd85b881b9bdd08199d5b991959081e595d606a1b6044820152606401610457565b6000600a5482600601548360070154611854919061225c565b61185e919061225c565b90508042116118af5760405162461bcd60e51b815260206004820152601860248201527f477261636520706572696f64206e6f74206578706972656400000000000000006044820152606401610457565b81600801548260090154106118fc5760405162461bcd60e51b8152602060048201526013602482015272131bd85b88185b1c9958591e481c995c185a59606a1b6044820152606401610457565b600a8201805460ff1916600290811790915554600383015460405163afc5818960e01b815260048101919091526001600160a01b039091169063afc5818990602401600060405180830381600087803b15801561195857600080fd5b505af115801561196c573d6000803e3d6000fd5b5050600280546001860154918601546003870154604051632142170760e11b81526001600160a01b03948516600482015291841660248301526044820152911692506342842e0e9150606401600060405180830381600087803b1580156119d257600080fd5b505af11580156119e6573d6000803e3d6000fd5b50505050336001600160a01b0316837f0256bdf47e9aff5784070d6cab332d79f81fc6b8c8ed875565982a423a389e3a8460030154604051611a2a91815260200190565b60405180910390a35050610f7d60018055565b611a45611bd8565b6001600160a01b038116600081815260076020526040808220805460ff19169055517f3302a1b37f04242bb55603f5449e7ecd690a35eef08ba1353c48c20e2aae9cda9190a250565b60056020528160005260406000208181548110611aaa57600080fd5b90600052602060002001600091509150505481565b611ac7611bd8565b6001600160a01b038116611b0f5760405162461bcd60e51b815260206004820152600f60248201526e496e76616c6964206164647265737360881b6044820152606401610457565b600980546001600160a01b0319166001600160a01b0392909216919091179055565b6001600160a01b038116600090815260056020908152604091829020805483518184028101840190945280845260609392830182828015611b9157602002820191906000526020600020905b815481526020019060010190808311611b7d575b50505050509050919050565b611ba5611bd8565b6001600160a01b038116611bcf57604051631e4fbdf760e01b815260006004820152602401610457565b610f7d81611c2f565b6000546001600160a01b03163314610d7d5760405163118cdaa760e01b8152336004820152602401610457565b600260015403611c2857604051633ee5aeb560e01b815260040160405180910390fd5b6002600155565b600080546001600160a01b038381166001600160a01b0319831681178455604051919092169283917f8be0079c531659141344cd1fd0a4f28419497f9722a3daafe3b4186f6b6457e09190a35050565b6040516001600160a01b038481166024830152838116604483015260648201839052611ce69186918216906323b872dd906084015b604051602081830303815290604052915060e01b6020820180516001600160e01b038381831617835250505050611d22565b50505050565b6040516001600160a01b03838116602483015260448201839052611d1d91859182169063a9059cbb90606401611cb4565b505050565b600080602060008451602086016000885af180611d45576040513d6000823e3d81fd5b50506000513d91508115611d5d578060011415611d6a565b6001600160a01b0384163b155b15611ce657604051635274afe760e01b81526001600160a01b0385166004820152602401610457565b6040518061018001604052806000815260200160006001600160a01b0316815260200160006001600160a01b031681526020016000815260200160008152602001600081526020016000815260200160008152602001600081526020016000815260200160006003811115611e0a57611e0a611e69565b8152600060209091015290565b600060208284031215611e2957600080fd5b5035919050565b6001600160a01b0381168114610f7d57600080fd5b600060208284031215611e5757600080fd5b8135611e6281611e30565b9392505050565b634e487b7160e01b600052602160045260246000fd5b60048110611e9d57634e487b7160e01b600052602160045260246000fd5b9052565b81518152602080830151610180830191611ec5908401826001600160a01b03169052565b506040830151611ee060408401826001600160a01b03169052565b50606083015160608301526080830151608083015260a083015160a083015260c083015160c083015260e083015160e083015261010080840151818401525061012080840151818401525061014080840151611f3e82850182611e7f565b5050610160928301516001600160a01b0316919092015290565b600080600080600060a08688031215611f7057600080fd5b853594506020860135935060408601359250606086013591506080860135611f9781611e30565b809150509295509295909350565b634e487b7160e01b600052604160045260246000fd5b60405160e0810167ffffffffffffffff81118282101715611fde57611fde611fa5565b60405290565b604051601f8201601f1916810167ffffffffffffffff8111828210171561200d5761200d611fa5565b604052919050565b600067ffffffffffffffff82111561202f5761202f611fa5565b50601f01601f191660200190565b600082601f83011261204e57600080fd5b813561206161205c82612015565b611fe4565b81815284602083860101111561207657600080fd5b816020850160208301376000918101602001919091529392505050565b600080600080600080600080610100898b0312156120b057600080fd5b883567ffffffffffffffff808211156120c857600080fd5b6120d48c838d0161203d565b995060208b0135985060408b0135975060608b01359150808211156120f857600080fd5b506121058b828c0161203d565b9550506080890135935060a0890135925060c0890135915060e089013561212b81611e30565b809150509295985092959890939650565b6000806040838503121561214f57600080fd5b50508035926020909101359150565b6000610180820190508d825260018060a01b03808e166020840152808d1660408401528b60608401528a60808401528960a08401528860c08401528760e084015286610100840152856101208401526121bb610140840186611e7f565b808416610160840152509d9c50505050505050505050505050565b600080604083850312156121e957600080fd5b82356121f481611e30565b946020939093013593505050565b6020808252825182820181905260009190848201906040850190845b8181101561223a5783518352928401929184019160010161221e565b50909695505050505050565b634e487b7160e01b600052601160045260246000fd5b8082018082111561226f5761226f612246565b92915050565b805161228081611e30565b919050565b60006020828403121561229757600080fd5b8151611e6281611e30565b60005b838110156122bd5781810151838201526020016122a5565b50506000910152565b600082601f8301126122d757600080fd5b81516122e561205c82612015565b8181528460208386010111156122fa57600080fd5b61230b8260208301602087016122a2565b949350505050565b8051801515811461228057600080fd5b60006020828403121561233557600080fd5b815167ffffffffffffffff8082111561234d57600080fd5b9083019060e0828603121561236157600080fd5b612369611fbb565b82518281111561237857600080fd5b612384878286016122c6565b8252506020830151602082015260408301516040820152606083015160608201526123b160808401612275565b60808201526123c260a08401612313565b60a082015260c083015160c082015280935050505092915050565b6000602082840312156123ef57600080fd5b5051919050565b808202811582820484141761226f5761226f612246565b60008261242a57634e487b7160e01b600052601260045260246000fd5b500490565b60006001820161244157612441612246565b5060010190565b6020808252600f908201526e4c6f616e206e6f742061637469766560881b604082015260600190565b8181038181111561226f5761226f612246565b6000815180845261249c8160208601602086016122a2565b601f01601f19169290920160200192915050565b6001600160a01b038616815260a0602082018190526000906124d490830187612484565b85604084015284606084015282810360808401526124f28185612484565b9897505050505050505056fea264697066735822122047a223c13248c05ca92642bdc3318990275481ae2d07e4d9ebdcee56093b537f64736f6c63430008140033",
  "linkReferences": {},
  "deployedLinkReferences": {}
}