{
  "_format": "hh-sol-artifact-1",
  "contractName": "LoanManager",
  "sourceName": "contracts/LoanManager.sol",
  "abi": [
    {
      "inputs": [
        {
          "internalType": "address",
          "name": "_assetToken",
          "type": "address"
        },
        {
          "internalType": "address",
          "name": "_feeRecipient",
          "type": "address"
        },
        {
          "internalType": "uint256",
          "name": "_platformFee",
          "type": "uint256"
        }
      ],
      "stateMutability": "nonpayable",
      "type": "constructor"
    },
    {
      "inputs": [
        {
          "internalType": "address",
          "name": "owner",
          "type": "address"
        }
      ],
      "name": "OwnableInvalidOwner",
      "type": "error"
    },
    {
      "inputs": [
        {
          "internalType": "address",
          "name": "account",
          "type": "address"
        }
      ],
      "name": "OwnableUnauthorizedAccount",
      "type": "error"
    },
    {
      "inputs": [],
      "name": "ReentrancyGuardReentrantCall",
      "type": "error"
    },
    {
      "inputs": [
        {
          "internalType": "address",
          "name": "token",
          "type": "address"
        }
      ],
      "name": "SafeERC20FailedOperation",
      "type": "error"
    },
    {
      "anonymous": false,
      "inputs": [
        {
          "indexed": true,
          "internalType": "uint256",
          "name": "loanId",
          "type": "uint256"
        },
        {
          "indexed": true,
          "internalType": "address",
          "name": "borrower",
          "type": "address"
        },
        {
          "indexed": true,
          "internalType": "address",
          "name": "lender",
          "type": "address"
        },
        {
          "indexed": false,
          "internalType": "uint256",
          "name": "assetTokenId",
          "type": "uint256"
        },
        {
          "indexed": false,
          "internalType": "uint256",
          "name": "principal",
          "type": "uint256"
        },
        {
          "indexed": false,
          "internalType": "uint256",
          "name": "interestRate",
          "type": "uint256"
        },
        {
          "indexed": false,
          "internalType": "uint256",
          "name": "duration",
          "type": "uint256"
        }
      ],
      "name": "LoanCreated",
      "type": "event"
    },
    {
      "anonymous": false,
      "inputs": [
        {
          "indexed": true,
          "internalType": "uint256",
          "name": "loanId",
          "type": "uint256"
        },
        {
          "indexed": true,
          "internalType": "address",
          "name": "lender",
          "type": "address"
        },
        {
          "indexed": false,
          "internalType": "uint256",
          "name": "amount",
          "type": "uint256"
        }
      ],
      "name": "LoanFunded",
      "type": "event"
    },
    {
      "anonymous": false,
      "inputs": [
        {
          "indexed": true,
          "internalType": "uint256",
          "name": "loanId",
          "type": "uint256"
        },
        {
          "indexed": true,
          "internalType": "address",
          "name": "liquidator",
          "type": "address"
        },
        {
          "indexed": false,
          "internalType": "uint256",
          "name": "assetTokenId",
          "type": "uint256"
        }
      ],
      "name": "LoanLiquidated",
      "type": "event"
    },
    {
      "anonymous": false,
      "inputs": [
        {
          "indexed": true,
          "internalType": "uint256",
          "name": "loanId",
          "type": "uint256"
        },
        {
          "indexed": true,
          "internalType": "address",
          "name": "borrower",
          "type": "address"
        }
      ],
      "name": "LoanRepaid",
      "type": "event"
    },
    {
      "anonymous": false,
      "inputs": [
        {
          "indexed": true,
          "internalType": "address",
          "name": "previousOwner",
          "type": "address"
        },
        {
          "indexed": true,
          "internalType": "address",
          "name": "newOwner",
          "type": "address"
        }
      ],
      "name": "OwnershipTransferred",
      "type": "event"
    },
    {
      "anonymous": false,
      "inputs": [
        {
          "indexed": true,
          "internalType": "uint256",
          "name": "loanId",
          "type": "uint256"
        },
        {
          "indexed": true,
          "internalType": "address",
          "name": "borrower",
          "type": "address"
        },
        {
          "indexed": false,
          "internalType": "uint256",
          "name": "amount",
          "type": "uint256"
        },
        {
          "indexed": false,
          "internalType": "uint256",
          "name": "remaining",
          "type": "uint256"
        }
      ],
      "name": "RepaymentMade",
      "type": "event"
    },
    {
      "anonymous": false,
      "inputs": [
        {
          "indexed": true,
          "internalType": "address",
          "name": "stablecoin",
          "type": "address"
        }
      ],
      "name": "StablecoinAdded",
      "type": "event"
    },
    {
      "anonymous": false,
      "inputs": [
        {
          "indexed": true,
          "internalType": "address",
          "name": "stablecoin",
          "type": "address"
        }
      ],
      "name": "StablecoinRemoved",
      "type": "event"
    },
    {
      "inputs": [
        {
          "internalType": "address",
          "name": "stablecoin",
          "type": "address"
        }
      ],
      "name": "addSupportedStablecoin",
      "outputs": [],
      "stateMutability": "nonpayable",
      "type": "function"
    },
    {
      "inputs": [
        {
          "internalType": "uint256",
          "name": "",
          "type": "uint256"
        }
      ],
      "name": "assetToLoan",
      "outputs": [
        {
          "internalType": "uint256",
          "name": "",
          "type": "uint256"
        }
      ],
      "stateMutability": "view",
      "type": "function"
    },
    {
      "inputs": [],
      "name": "assetToken",
      "outputs": [
        {
          "internalType": "contract AssetToken",
          "name": "",
          "type": "address"
        }
      ],
      "stateMutability": "view",
      "type": "function"
    },
    {
      "inputs": [
        {
          "internalType": "address",
          "name": "",
          "type": "address"
        },
        {
          "internalType": "uint256",
          "name": "",
          "type": "uint256"
        }
      ],
      "name": "borrowerLoans",
      "outputs": [
        {
          "internalType": "uint256",
          "name": "",
          "type": "uint256"
        }
      ],
      "stateMutability": "view",
      "type": "function"
    },
    {
      "inputs": [
        {
          "internalType": "uint256",
          "name": "assetTokenId",
          "type": "uint256"
        },
        {
          "internalType": "uint256",
          "name": "principal",
          "type": "uint256"
        },
        {
          "internalType": "uint256",
          "name": "interestRate",
          "type": "uint256"
        },
        {
          "internalType": "uint256",
          "name": "duration",
          "type": "uint256"
        },
        {
          "internalType": "address",
          "name": "stablecoin",
          "type": "address"
        }
      ],
      "name": "createLoan",
      "outputs": [
        {
          "internalType": "uint256",
          "name": "",
          "type": "uint256"
        }
      ],
      "stateMutability": "nonpayable",
      "type": "function"
    },
    {
      "inputs": [],
      "name": "feeRecipient",
      "outputs": [
        {
          "internalType": "address",
          "name": "",
          "type": "address"
        }
      ],
      "stateMutability": "view",
      "type": "function"
    },
    {
      "inputs": [
        {
          "internalType": "uint256",
          "name": "loanId",
          "type": "uint256"
        }
      ],
      "name": "fundLoan",
      "outputs": [],
      "stateMutability": "nonpayable",
      "type": "function"
    },
    {
      "inputs": [
        {
          "internalType": "address",
          "name": "borrower",
          "type": "address"
        }
      ],
      "name": "getBorrowerLoans",
      "outputs": [
        {
          "internalType": "uint256[]",
          "name": "",
          "type": "uint256[]"
        }
      ],
      "stateMutability": "view",
      "type": "function"
    },
    {
      "inputs": [
        {
          "internalType": "uint256",
          "name": "loanId",
          "type": "uint256"
        }
      ],
      "name": "getLoan",
      "outputs": [
        {
          "components": [
            {
              "internalType": "uint256",
              "name": "loanId",
              "type": "uint256"
            },
            {
              "internalType": "address",
              "name": "borrower",
              "type": "address"
            },
            {
              "internalType": "address",
              "name": "lender",
              "type": "address"
            },
            {
              "internalType": "uint256",
              "name": "assetTokenId",
              "type": "uint256"
            },
            {
              "internalType": "uint256",
              "name": "principal",
              "type": "uint256"
            },
            {
              "internalType": "uint256",
              "name": "interestRate",
              "type": "uint256"
            },
            {
              "internalType": "uint256",
              "name": "duration",
              "type": "uint256"
            },
            {
              "internalType": "uint256",
              "name": "startTime",
              "type": "uint256"
            },
            {
              "internalType": "uint256",
              "name": "totalRepayment",
              "type": "uint256"
            },
            {
              "internalType": "uint256",
              "name": "amountRepaid",
              "type": "uint256"
            },
            {
              "internalType": "enum LoanManager.LoanStatus",
              "name": "status",
              "type": "uint8"
            },
            {
              "internalType": "address",
              "name": "stablecoin",
              "type": "address"
            }
          ],
          "internalType": "struct LoanManager.Loan",
          "name": "",
          "type": "tuple"
        }
      ],
      "stateMutability": "view",
      "type": "function"
    },
    {
      "inputs": [
        {
          "internalType": "uint256",
          "name": "loanId",
          "type": "uint256"
        }
      ],
      "name": "isLoanOverdue",
      "outputs": [
        {
          "internalType": "bool",
          "name": "",
          "type": "bool"
        }
      ],
      "stateMutability": "view",
      "type": "function"
    },
    {
      "inputs": [
        {
          "internalType": "uint256",
          "name": "loanId",
          "type": "uint256"
        }
      ],
      "name": "liquidateLoan",
      "outputs": [],
      "stateMutability": "nonpayable",
      "type": "function"
    },
    {
      "inputs": [],
      "name": "liquidationGracePeriod",
      "outputs": [
        {
          "internalType": "uint256",
          "name": "",
          "type": "uint256"
        }
      ],
      "stateMutability": "view",
      "type": "function"
    },
    {
      "inputs": [
        {
          "internalType": "uint256",
          "name": "",
          "type": "uint256"
        }
      ],
      "name": "loans",
      "outputs": [
        {
          "internalType": "uint256",
          "name": "loanId",
          "type": "uint256"
        },
        {
          "internalType": "address",
          "name": "borrower",
          "type": "address"
        },
        {
          "internalType": "address",
          "name": "lender",
          "type": "address"
        },
        {
          "internalType": "uint256",
          "name": "assetTokenId",
          "type": "uint256"
        },
        {
          "internalType": "uint256",
          "name": "principal",
          "type": "uint256"
        },
        {
          "internalType": "uint256",
          "name": "interestRate",
          "type": "uint256"
        },
        {
          "internalType": "uint256",
          "name": "duration",
          "type": "uint256"
        },
        {
          "internalType": "uint256",
          "name": "startTime",
          "type": "uint256"
        },
        {
          "internalType": "uint256",
          "name": "totalRepayment",
          "type": "uint256"
        },
        {
          "internalType": "uint256",
          "name": "amountRepaid",
          "type": "uint256"
        },
        {
          "internalType": "enum LoanManager.LoanStatus",
          "name": "status",
          "type": "uint8"
        },
        {
          "internalType": "address",
          "name": "stablecoin",
          "type": "address"
        }
      ],
      "stateMutability": "view",
      "type": "function"
    },
    {
      "inputs": [
        {
          "internalType": "uint256",
          "name": "loanId",
          "type": "uint256"
        },
        {
          "internalType": "uint256",
          "name": "amount",
          "type": "uint256"
        }
      ],
      "name": "makeRepayment",
      "outputs": [],
      "stateMutability": "nonpayable",
      "type": "function"
    },
    {
      "inputs": [],
      "name": "owner",
      "outputs": [
        {
          "internalType": "address",
          "name": "",
          "type": "address"
        }
      ],
      "stateMutability": "view",
      "type": "function"
    },
    {
      "inputs": [],
      "name": "platformFee",
      "outputs": [
        {
          "internalType": "uint256",
          "name": "",
          "type": "uint256"
        }
      ],
      "stateMutability": "view",
      "type": "function"
    },
    {
      "inputs": [
        {
          "internalType": "address",
          "name": "stablecoin",
          "type": "address"
        }
      ],
      "name": "removeSupportedStablecoin",
      "outputs": [],
      "stateMutability": "nonpayable",
      "type": "function"
    },
    {
      "inputs": [],
      "name": "renounceOwnership",
      "outputs": [],
      "stateMutability": "nonpayable",
      "type": "function"
    },
    {
      "inputs": [
        {
          "internalType": "address",
          "name": "_feeRecipient",
          "type": "address"
        }
      ],
      "name": "setFeeRecipient",
      "outputs": [],
      "stateMutability": "nonpayable",
      "type": "function"
    },
    {
      "inputs": [
        {
          "internalType": "uint256",
          "name": "_gracePeriod",
          "type": "uint256"
        }
      ],
      "name": "setLiquidationGracePeriod",
      "outputs": [],
      "stateMutability": "nonpayable",
      "type": "function"
    },
    {
      "inputs": [
        {
          "internalType": "uint256",
          "name": "_platformFee",
          "type": "uint256"
        }
      ],
      "name": "setPlatformFee",
      "outputs": [],
      "stateMutability": "nonpayable",
      "type": "function"
    },
    {
      "inputs": [
        {
          "internalType": "address",
          "name": "",
          "type": "address"
        }
      ],
      "name": "supportedStablecoins",
      "outputs": [
        {
          "internalType": "bool",
          "name": "",
          "type": "bool"
        }
      ],
      "stateMutability": "view",
      "type": "function"
    },
    {
      "inputs": [
        {
          "internalType": "address",
          "name": "newOwner",
          "type": "address"
        }
      ],
      "name": "transferOwnership",
      "outputs": [],
      "stateMutability": "nonpayable",
      "type": "function"
    }
  ],
  "bytecode": "0x608060405262093a80600a553480156200001857600080fd5b50604051620020a4380380620020a48339810160408190526200003b916200021d565b33806200006357604051631e4fbdf760e01b8152600060048201526024015b60405180910390fd5b6200006e81620001b0565b50600180556001600160a01b038316620000cb5760405162461bcd60e51b815260206004820152601b60248201527f496e76616c696420617373657420746f6b656e2061646472657373000000000060448201526064016200005a565b6001600160a01b038216620001235760405162461bcd60e51b815260206004820152601560248201527f496e76616c69642066656520726563697069656e74000000000000000000000060448201526064016200005a565b6103e8811115620001775760405162461bcd60e51b815260206004820152601560248201527f506c6174666f726d2066656520746f6f2068696768000000000000000000000060448201526064016200005a565b600280546001600160a01b039485166001600160a01b03199182161790915560098054939094169216919091179091556008556200025e565b600080546001600160a01b038381166001600160a01b0319831681178455604051919092169283917f8be0079c531659141344cd1fd0a4f28419497f9722a3daafe3b4186f6b6457e09190a35050565b80516001600160a01b03811681146200021857600080fd5b919050565b6000806000606084860312156200023357600080fd5b6200023e8462000200565b92506200024e6020850162000200565b9150604084015190509250925092565b611e36806200026e6000396000f3fe608060405234801561001057600080fd5b506004361061014d5760003560e01c8063846b909a116100c3578063d5d3f78b1161007c578063d5d3f78b146102db578063e1ec3c68146102ee578063e3ed190214610386578063e74b981b14610399578063eee8b7ff146103ac578063f2fde38b146103cc57600080fd5b8063846b909a1461024e5780638da5cb5b14610261578063b1485b3314610272578063bf7d911914610285578063ccdd9f5d146102a8578063d31f1b3e146102bb57600080fd5b80633b498602116101155780633b498602146101ca57806346904840146101ed578063504006ca1461020057806355f7e789146102205780636b58359e14610233578063715018a61461024657600080fd5b80631083f7611461015257806312e8e2c31461018257806316a6c4c51461019757806324532867146101ae57806326232a2e146101c1575b600080fd5b600254610165906001600160a01b031681565b6040516001600160a01b0390911681526020015b60405180910390f35b6101956101903660046118a6565b6103df565b005b6101a0600a5481565b604051908152602001610179565b6101956101bc3660046118d4565b610432565b6101a060085481565b6101dd6101d83660046118a6565b6104dc565b6040519015158152602001610179565b600954610165906001600160a01b031681565b61021361020e3660046118a6565b61060b565b6040516101799190611930565b6101a061022e3660046119e7565b6106f5565b6101956102413660046118a6565b610d30565b610195610d3d565b61019561025c3660046118a6565b610d51565b6000546001600160a01b0316610165565b610195610280366004611a34565b610f52565b6101dd6102933660046118d4565b60076020526000908152604090205460ff1681565b6101956102b63660046118a6565b611233565b6101a06102c93660046118a6565b60066020526000908152604090205481565b6101956102e93660046118d4565b6114cc565b61036e6102fc3660046118a6565b600460208190526000918252604090912080546001820154600283015460038401549484015460058501546006860154600787015460088801546009890154600a9099015497996001600160a01b0397881699968816989097959694959394929391929160ff8216916101009004168c565b6040516101799c9b9a99989796959493929190611a56565b6101a0610394366004611ace565b61151d565b6101956103a73660046118d4565b61154e565b6103bf6103ba3660046118d4565b6115c0565b6040516101799190611afa565b6101956103da3660046118d4565b61162c565b6103e7611667565b6103e881111561042d5760405162461bcd60e51b815260206004820152600c60248201526b08ccaca40e8dede40d0d2ced60a31b60448201526064015b60405180910390fd5b600855565b61043a611667565b6001600160a01b0381166104905760405162461bcd60e51b815260206004820152601a60248201527f496e76616c696420737461626c65636f696e20616464726573730000000000006044820152606401610424565b6001600160a01b038116600081815260076020526040808220805460ff19166001179055517f3db297c09c19972ba6a701ff373ab97e21ff1e4992e863c7abe44e9b2fed08479190a250565b60008181526004602081815260408084208151610180810183528154815260018201546001600160a01b03908116948201949094526002820154909316918301919091526003808201546060840152928101546080830152600581015460a0830152600681015460c0830152600781015460e083015260088101546101008301526009810154610120830152600a810154849361014084019160ff1690811115610588576105886118f8565b6003811115610599576105996118f8565b8152600a919091015461010090046001600160a01b03166020909101529050600081610140015160038111156105d1576105d16118f8565b1415806105e0575060e0810151155b156105ee5750600092915050565b8060c001518160e001516106029190611b54565b42119392505050565b610613611822565b6000828152600460208181526040928390208351610180810185528154815260018201546001600160a01b03908116938201939093526002820154909216938201939093526003808401546060830152918301546080820152600583015460a0820152600683015460c0820152600783015460e082015260088301546101008201526009830154610120820152600a83015490929161014084019160ff16908111156106c1576106c16118f8565b60038111156106d2576106d26118f8565b8152600a919091015461010090046001600160a01b031660209091015292915050565b60006106ff611694565b6001600160a01b03821660009081526007602052604090205460ff166107675760405162461bcd60e51b815260206004820152601860248201527f537461626c65636f696e206e6f7420737570706f7274656400000000000000006044820152606401610424565b600085116107b75760405162461bcd60e51b815260206004820181905260248201527f5072696e636970616c206d7573742062652067726561746572207468616e20306044820152606401610424565b600083116108075760405162461bcd60e51b815260206004820152601f60248201527f4475726174696f6e206d7573742062652067726561746572207468616e2030006044820152606401610424565b6127108411156108525760405162461bcd60e51b8152602060048201526016602482015275092dce8cae4cae6e840e4c2e8ca40e8dede40d0d2ced60531b6044820152606401610424565b6002546040516331a9108f60e11b81526004810188905233916001600160a01b031690636352211e90602401602060405180830381865afa15801561089b573d6000803e3d6000fd5b505050506040513d601f19601f820116820180604052508101906108bf9190611b7d565b6001600160a01b0316146109075760405162461bcd60e51b815260206004820152600f60248201526e2737ba1030b9b9b2ba1037bbb732b960891b6044820152606401610424565b600254604051631d591eb760e31b8152600481018890526000916001600160a01b03169063eac8f5b890602401600060405180830381865afa158015610951573d6000803e3d6000fd5b505050506040513d6000823e601f3d908101601f191682016040526109799190810190611c9f565b90508060a00151156109c45760405162461bcd60e51b8152602060048201526014602482015273105cdcd95d08185b1c9958591e481b1bd8dad95960621b6044820152606401610424565b60025460405163e95f2c7d60e01b8152600481018990526000916001600160a01b03169063e95f2c7d90602401602060405180830381865afa158015610a0e573d6000803e3d6000fd5b505050506040513d601f19601f82011682018060405250810190610a329190611d59565b905080871115610a7b5760405162461bcd60e51b81526020600482015260146024820152732637b0b71032bc31b2b2b2399036b0bc10262a2b60611b6044820152606401610424565b600064496cebb80086610a8e898b611d72565b610a989190611d72565b610aa29190611d89565b90506000610ab0828a611b54565b600380549192506000919082610ac583611dab565b919050559050604051806101800160405280828152602001336001600160a01b0316815260200160006001600160a01b031681526020018c81526020018b81526020018a8152602001898152602001600081526020018381526020016000815260200160006003811115610b3b57610b3b6118f8565b81526001600160a01b03808a16602092830152600084815260048084526040918290208551815593850151600180860180549286166001600160a01b03199384161790559286015160028601805491909516911617909255606084015160038085019190915560808501519284019290925560a0840151600584015560c0840151600684015560e0840151600784015561010084015160088401556101208401516009840155610140840151600a840180549193909260ff1990921691908490811115610c0a57610c0a6118f8565b02179055506101609190910151600a9091018054610100600160a81b0319166101006001600160a01b03938416021790553360009081526005602090815260408083208054600181018255908452828420018590558e8352600690915290819020839055600254905163d9632dd560e01b8152600481018e90526024810184905291169063d9632dd590604401600060405180830381600087803b158015610cb157600080fd5b505af1158015610cc5573d6000803e3d6000fd5b5050604080518e8152602081018e90529081018c9052606081018b90526000925033915083907fe1032cc37af020767fb800df5603de546dbfb9fe6efd5a435f5654ebec1e43029060800160405180910390a4945050505050610d2760018055565b95945050505050565b610d38611667565b600a55565b610d45611667565b610d4f60006116be565b565b610d59611694565b600081815260046020526040812090600a82015460ff166003811115610d8157610d816118f8565b14610d9e5760405162461bcd60e51b815260040161042490611dc4565b60028101546001600160a01b031615610def5760405162461bcd60e51b8152602060048201526013602482015272131bd85b88185b1c9958591e48199d5b991959606a1b6044820152606401610424565b600781015415610e385760405162461bcd60e51b8152602060048201526014602482015273131bd85b88185b1c9958591e481cdd185c9d195960621b6044820152606401610424565b6004810154600a820154610e5f916101009091046001600160a01b0316903390309061170e565b60006127106008548360040154610e769190611d72565b610e809190611d89565b90506000818360040154610e949190611ded565b90508115610ec057600954600a840154610ec0916001600160a01b03610100909204821691168461177b565b6001830154600a840154610ee6916001600160a01b03610100909204821691168361177b565b6002830180546001600160a01b03191633908117909155426007850155600484015460405186917fbd7ef6c6281278f6c8ac4ae9ef2f205b52425813c288dd47c377cb6b59c5076e91610f3b91815260200190565b60405180910390a3505050610f4f60018055565b50565b610f5a611694565b600082815260046020526040812090600a82015460ff166003811115610f8257610f826118f8565b14610f9f5760405162461bcd60e51b815260040161042490611dc4565b6000816007015411610fe95760405162461bcd60e51b8152602060048201526013602482015272131bd85b881b9bdd08199d5b991959081e595d606a1b6044820152606401610424565b60018101546001600160a01b031633146110345760405162461bcd60e51b815260206004820152600c60248201526b2737ba103137b93937bbb2b960a11b6044820152606401610424565b600082116110845760405162461bcd60e51b815260206004820152601d60248201527f416d6f756e74206d7573742062652067726561746572207468616e20300000006044820152606401610424565b60008160090154826008015461109a9190611ded565b9050808311156110ec5760405162461bcd60e51b815260206004820152601860248201527f416d6f756e7420657863656564732072656d61696e696e6700000000000000006044820152606401610424565b6002820154600a830154611114916001600160a01b036101009092048216913391168661170e565b828260090160008282546111289190611b54565b90915550339050847f0a286c61061a6ef637f0a9d98b2c8ce3e7b6c3fe924e23abd5fcb5e0110201428561115c8186611ded565b6040805192835260208301919091520160405180910390a3816008015482600901541061122457600a8201805460ff19166001179055600254600383015460405163afc5818960e01b815260048101919091526001600160a01b039091169063afc5818990602401600060405180830381600087803b1580156111de57600080fd5b505af11580156111f2573d6000803e3d6000fd5b50506040513392508691507fe69d7686a8bc68278b8c5419579f91716b3ef2ac2fac0d8cf80b8011f8f458a490600090a35b505061122f60018055565b5050565b61123b611694565b600081815260046020526040812090600a82015460ff166003811115611263576112636118f8565b146112805760405162461bcd60e51b815260040161042490611dc4565b60008160070154116112ca5760405162461bcd60e51b8152602060048201526013602482015272131bd85b881b9bdd08199d5b991959081e595d606a1b6044820152606401610424565b6000600a54826006015483600701546112e39190611b54565b6112ed9190611b54565b905080421161133e5760405162461bcd60e51b815260206004820152601860248201527f477261636520706572696f64206e6f74206578706972656400000000000000006044820152606401610424565b816008015482600901541061138b5760405162461bcd60e51b8152602060048201526013602482015272131bd85b88185b1c9958591e481c995c185a59606a1b6044820152606401610424565b600a8201805460ff1916600290811790915554600383015460405163afc5818960e01b815260048101919091526001600160a01b039091169063afc5818990602401600060405180830381600087803b1580156113e757600080fd5b505af11580156113fb573d6000803e3d6000fd5b5050600280546001860154918601546003870154604051632142170760e11b81526001600160a01b03948516600482015291841660248301526044820152911692506342842e0e9150606401600060405180830381600087803b15801561146157600080fd5b505af1158015611475573d6000803e3d6000fd5b50505050336001600160a01b0316837f0256bdf47e9aff5784070d6cab332d79f81fc6b8c8ed875565982a423a389e3a84600301546040516114b991815260200190565b60405180910390a35050610f4f60018055565b6114d4611667565b6001600160a01b038116600081815260076020526040808220805460ff19169055517f3302a1b37f04242bb55603f5449e7ecd690a35eef08ba1353c48c20e2aae9cda9190a250565b6005602052816000526040600020818154811061153957600080fd5b90600052602060002001600091509150505481565b611556611667565b6001600160a01b03811661159e5760405162461bcd60e51b815260206004820152600f60248201526e496e76616c6964206164647265737360881b6044820152606401610424565b600980546001600160a01b0319166001600160a01b0392909216919091179055565b6001600160a01b03811660009081526005602090815260409182902080548351818402810184019094528084526060939283018282801561162057602002820191906000526020600020905b81548152602001906001019080831161160c575b50505050509050919050565b611634611667565b6001600160a01b03811661165e57604051631e4fbdf760e01b815260006004820152602401610424565b610f4f816116be565b6000546001600160a01b03163314610d4f5760405163118cdaa760e01b8152336004820152602401610424565b6002600154036116b757604051633ee5aeb560e01b815260040160405180910390fd5b6002600155565b600080546001600160a01b038381166001600160a01b0319831681178455604051919092169283917f8be0079c531659141344cd1fd0a4f28419497f9722a3daafe3b4186f6b6457e09190a35050565b6040516001600160a01b0384811660248301528381166044830152606482018390526117759186918216906323b872dd906084015b604051602081830303815290604052915060e01b6020820180516001600160e01b0383818316178352505050506117b1565b50505050565b6040516001600160a01b038381166024830152604482018390526117ac91859182169063a9059cbb90606401611743565b505050565b600080602060008451602086016000885af1806117d4576040513d6000823e3d81fd5b50506000513d915081156117ec5780600114156117f9565b6001600160a01b0384163b155b1561177557604051635274afe760e01b81526001600160a01b0385166004820152602401610424565b6040518061018001604052806000815260200160006001600160a01b0316815260200160006001600160a01b031681526020016000815260200160008152602001600081526020016000815260200160008152602001600081526020016000815260200160006003811115611899576118996118f8565b8152600060209091015290565b6000602082840312156118b857600080fd5b5035919050565b6001600160a01b0381168114610f4f57600080fd5b6000602082840312156118e657600080fd5b81356118f1816118bf565b9392505050565b634e487b7160e01b600052602160045260246000fd5b6004811061192c57634e487b7160e01b600052602160045260246000fd5b9052565b81518152602080830151610180830191611954908401826001600160a01b03169052565b50604083015161196f60408401826001600160a01b03169052565b50606083015160608301526080830151608083015260a083015160a083015260c083015160c083015260e083015160e0830152610100808401518184015250610120808401518184015250610140808401516119cd8285018261190e565b5050610160928301516001600160a01b0316919092015290565b600080600080600060a086880312156119ff57600080fd5b853594506020860135935060408601359250606086013591506080860135611a26816118bf565b809150509295509295909350565b60008060408385031215611a4757600080fd5b50508035926020909101359150565b6000610180820190508d825260018060a01b03808e166020840152808d1660408401528b60608401528a60808401528960a08401528860c08401528760e08401528661010084015285610120840152611ab361014084018661190e565b808416610160840152509d9c50505050505050505050505050565b60008060408385031215611ae157600080fd5b8235611aec816118bf565b946020939093013593505050565b6020808252825182820181905260009190848201906040850190845b81811015611b3257835183529284019291840191600101611b16565b50909695505050505050565b634e487b7160e01b600052601160045260246000fd5b80820180821115611b6757611b67611b3e565b92915050565b8051611b78816118bf565b919050565b600060208284031215611b8f57600080fd5b81516118f1816118bf565b634e487b7160e01b600052604160045260246000fd5b60405160e0810167ffffffffffffffff81118282101715611bd357611bd3611b9a565b60405290565b604051601f8201601f1916810167ffffffffffffffff81118282101715611c0257611c02611b9a565b604052919050565b600082601f830112611c1b57600080fd5b815167ffffffffffffffff811115611c3557611c35611b9a565b6020611c49601f8301601f19168201611bd9565b8281528582848701011115611c5d57600080fd5b60005b83811015611c7b578581018301518282018401528201611c60565b506000928101909101919091529392505050565b80518015158114611b7857600080fd5b600060208284031215611cb157600080fd5b815167ffffffffffffffff80821115611cc957600080fd5b9083019060e08286031215611cdd57600080fd5b611ce5611bb0565b825182811115611cf457600080fd5b611d0087828601611c0a565b825250602083015160208201526040830151604082015260608301516060820152611d2d60808401611b6d565b6080820152611d3e60a08401611c8f565b60a082015260c083015160c082015280935050505092915050565b600060208284031215611d6b57600080fd5b5051919050565b8082028115828204841417611b6757611b67611b3e565b600082611da657634e487b7160e01b600052601260045260246000fd5b500490565b600060018201611dbd57611dbd611b3e565b5060010190565b6020808252600f908201526e4c6f616e206e6f742061637469766560881b604082015260600190565b81810381811115611b6757611b67611b3e56fea2646970667358221220fc2195a26967480f409683e056fb23a82d582ee513764f30ef3d2feefb7db12b64736f6c63430008140033",
  "linkReferences": {},
  "deployedLinkReferences": {}
}